:1005DC00FEFDFBF7EFDF3F065B4F666D7D077F6F20
:0805EC00777C395E7971004053
:10046F0001230001240001260001270001280001BB
:10047F002900013600013700013800013900013B26
:10048F0000013C000C2A001000100010001000109A
:02049F0000104B
:10051E007FE81205347FE81205347FE81205347F38
:06052E00E81205347FE82D
:0D053400EFD3940040077E7DDEFE1F80F3B4
:010541002297
:03063300000022A2
:10060800E4FDFCC3ED9FEC9E50070DBD00010C807E
:01061800F2EF
:0106190022BE
:0A062900D2A1120633D2A00206335C
:1005F400D2A0120633D2A1120633C2A0120633C20D
:04060400A102063316
:0F061A00C2A0120633D2A1120633D2A0020633B9
:10054200E4FEC2A100EF30E704D2A08002C2A0D232
:10055200A100EF25E0FF0EBE08E8C2A1120633D2C9
:04056200A0020633BA
:1004CF00E4FFC2A1120633D2A0FED2A10030A003D6
:1004DF00430701EEC394075004EF25E0FFC2A100CC
:0704EF000EBE08E612063301
:0104F60022E3
:0B056600120542120571AF051205429C
:10057100E4FFD2A112063330A009EFC394FF500368
:080581000F80F4C2A102063351
:1003A0007F051205A8E4FF1203CA8F237F01120301
:1003B000CA8F247F021203CA8F267F031203CA8FBB
:0A03C000277F041203CA8F287F056F
:0203CA00AD077D
:1003CC001205F47FA01205661205F47FA1120542F6
:1003DC001205711204CFAB0712061A7F647E00124D
:0403EC000608AF034D
:0103F00022EA
:1005A800AC071205F47FA0120542120571AF0412C0
:0C05B800056612061A7F887E13020608F2
:1004A200E4FDC2A6ED25E0242AF808E69005E293D1
:1004B200F580D2A6C2A6C2A7ED9005DC93F580D244
:0C04C200A7C2A77F051205340DBD06D6A9
:0104CE00220B
:10000300E5B064F0700302016F75B0FE85B025534F
:1000130025F0E52564F0604C7F0A120534E525647C
:10002300F06041E5B0F4F52524DF601324E06016A9
:1000330024C060192470701AE4F522053A80137500
:100043002201053A800C752202053A8005752203C8
:10005300053AE52564F0600A85B0255325F0C2A36F
:1000630080F0D2A375B0FD85B0255325F0E5256456
:10007300F0604C7F0A120534E52564F06041E5B079
:10008300F4F52524DE601324E0601624C0601924EF
:1000930070701A752204053A8013752205053A809B
:1000A3000C752206053A8005752207053AE5256495
:1000B300F0600A85B0255325F0C2A380F0D2A37562
:1000C300B0FB85B0255325F0E52564F0604C7F0A2D
:1000D300120534E52564F06041E5B0F4F52524DC30
:1000E300601324E0601624C060192470701A75220E
:1000F30008053A8013752209053A800CD207E4F506
:100103003A8005300302D206E52564F0600A85B023
:10011300255325F0C2A380F0D2A375B0F785B0258F
:100123005325F0E52564F060437F0A120534E52585
:1001330064F06038E5B0F4F52524D8601024E0605D
:100143001024C0601324707011D202800DD201807C
:1001530009300306D2058002D200E52564F0600A67
:0D01630085B0255325F0C2A380F0D2A32261
:10017000300403020242E53A24FE601E1460321489
:10018000604614605A14700302020E2405600302D4
:1001900002428522362003678058852237E53A25BA
:1001A000E02426F8E6FE08E664114E7002804380E3
:1001B0004E852238E53A25E02424F8E6FE08E66478
:1001C000114E7002802C8037852239E53A25E024D3
:1001D00022F8E6FE08E664114E7002801580208544
:1001E000223BE53A25E02420F8E6FE08E664114EBD
:1001F000700DE53A25E02428F8760008761122AF44
:1002000022E53A25E02428F8760008A60722852270
:100210003CE53A25E0241EF8E6FE08E664114E703F
:1002200011E53A25E02428F87600087611D2040575
:100230002122AF22E53A25E02428F8760008A60717
:03024000D20422C3
:1004F700300423E536B5231EE537B52419E538B5AD
:100507002614E539B5270FE53BB5280AE53CB5299B
:0705170005D203E4F52122E7
:1003F1007D01E4FF1205A87D017F011205A87D01A1
:100401007F021205A87D027F031205A87D027F04E9
:100411001205A87D021203A08F29C2057590FF7FE6
:10042100E812053475900F12051ED201E4F521C2C0
:020431000022A7
:10043300E4FDFF1205A8E4FD7F011205A8E4FD7F9A
:10044300021205A8E4FD7F031205A8E4FD7F041250
:1004530005A8E4FD1203A08F29C2057590FF7FE86C
:0C0463001205347590EF12051ED2012224
:10034C00C206E4F53AC207AD36FF1205A8AD377FF9
:10035C00011205A8AD387F021205A8AD397F031232
:10036C0005A8AD3B7F041205A8AD3C7F051205A87E
:10037C00853623853724853826853927853B28857E
:10038C003C29E4FFEF25E0242AF876000876100FCC
:03039C00BF06F1A8
:01039F00223B
:1005C400C202E4F53AC204FFEF25E0242AF87600DB
:0705D4000876100FBF06F1CD
:0105DB0022FD
:10058900C201C207E4F53AC204C2037590FFFFEF46
:0E05990025E0242AF876000876100FBF06F140
:0105A7002231
:1002CF001206291203A58F291200031201701204BE
:1002DF00F7300308E4F590200702C204E521C39428
:1002EF00034014E4FFEF25E0242AF8760008767621
:1002FF000FBF06F11204A23000051203F180F8308F
:10030F00071B300318200415120003120170A201FD
:10031F0072025004D20480051204A280E830030652
:10032F0030050312043330060312034C300203125C
:0D033F0005C43001031205891204A2808B51
:03000000020243B6
:0C024300787FE4F6D8FD75813C02028A49
:10024F000202CFE493A3F8E493A34003F68001F2F4
:10025F0008DFF48029E493A3F85407240CC8C333B0
:10026F00C4540F4420C8834004F456800146F6DF7F
:10027F00E4800B010204081020408090046FE47E9C
:10028F00019360BCA3FF543F30E509541FFEE49374
:10029F00A360010ECF54C025E060A840B8E493A33B
:1002AF00FAE493A3F8E493A3C8C582C8CAC583CA66
:1002BF00F0A3C8C582C8CAC583CADFE9DEE780BE1E
:0104A100005A
:00000001FF
